{
  "contractName": "farmer",
  "abi": [
    {
      "inputs": [],
      "stateMutability": "nonpayable",
      "type": "constructor"
    },
    {
      "inputs": [
        {
          "internalType": "address",
          "name": "f_wallet",
          "type": "address"
        },
        {
          "internalType": "string",
          "name": "f_name",
          "type": "string"
        }
      ],
      "name": "addFarmer",
      "outputs": [],
      "stateMutability": "nonpayable",
      "type": "function"
    },
    {
      "inputs": [],
      "name": "viewFarmer",
      "outputs": [
        {
          "internalType": "address[]",
          "name": "",
          "type": "address[]"
        },
        {
          "internalType": "string[]",
          "name": "",
          "type": "string[]"
        }
      ],
      "stateMutability": "view",
      "type": "function",
      "constant": true
    },
    {
      "inputs": [
        {
          "internalType": "address",
          "name": "d_wallet",
          "type": "address"
        },
        {
          "internalType": "string",
          "name": "d_name",
          "type": "string"
        }
      ],
      "name": "addDistributor",
      "outputs": [],
      "stateMutability": "nonpayable",
      "type": "function"
    },
    {
      "inputs": [],
      "name": "viewDistributor",
      "outputs": [
        {
          "internalType": "address[]",
          "name": "",
          "type": "address[]"
        },
        {
          "internalType": "string[]",
          "name": "",
          "type": "string[]"
        }
      ],
      "stateMutability": "view",
      "type": "function",
      "constant": true
    },
    {
      "inputs": [
        {
          "internalType": "address",
          "name": "s_wallet",
          "type": "address"
        },
        {
          "internalType": "string",
          "name": "s_name",
          "type": "string"
        }
      ],
      "name": "addShop",
      "outputs": [],
      "stateMutability": "nonpayable",
      "type": "function"
    },
    {
      "inputs": [],
      "name": "viewShop",
      "outputs": [
        {
          "internalType": "address[]",
          "name": "",
          "type": "address[]"
        },
        {
          "internalType": "string[]",
          "name": "",
          "type": "string[]"
        }
      ],
      "stateMutability": "view",
      "type": "function",
      "constant": true
    },
    {
      "inputs": [
        {
          "internalType": "address",
          "name": "f_wallet",
          "type": "address"
        }
      ],
      "name": "addAsset",
      "outputs": [],
      "stateMutability": "nonpayable",
      "type": "function"
    },
    {
      "inputs": [],
      "name": "viewAsset",
      "outputs": [
        {
          "internalType": "uint256[]",
          "name": "",
          "type": "uint256[]"
        },
        {
          "internalType": "address[]",
          "name": "",
          "type": "address[]"
        },
        {
          "internalType": "address[]",
          "name": "",
          "type": "address[]"
        },
        {
          "internalType": "address[]",
          "name": "",
          "type": "address[]"
        }
      ],
      "stateMutability": "view",
      "type": "function",
      "constant": true
    },
    {
      "inputs": [
        {
          "internalType": "uint256",
          "name": "assetid",
          "type": "uint256"
        },
        {
          "internalType": "address",
          "name": "f_wallet",
          "type": "address"
        },
        {
          "internalType": "address",
          "name": "d_wallet",
          "type": "address"
        }
      ],
      "name": "sellAssetToDistributor",
      "outputs": [
        {
          "internalType": "bool",
          "name": "",
          "type": "bool"
        }
      ],
      "stateMutability": "nonpayable",
      "type": "function"
    },
    {
      "inputs": [
        {
          "internalType": "uint256",
          "name": "assetid",
          "type": "uint256"
        },
        {
          "internalType": "address",
          "name": "d_wallet",
          "type": "address"
        },
        {
          "internalType": "address",
          "name": "s_wallet",
          "type": "address"
        }
      ],
      "name": "sellAssetToShop",
      "outputs": [
        {
          "internalType": "bool",
          "name": "",
          "type": "bool"
        }
      ],
      "stateMutability": "nonpayable",
      "type": "function"
    }
  ],
  "bytecode": "0x608060405234801561001057600080fd5b506000600d8190555033600e60006101000a81548173ffffffffffffffffffffffffffffffffffffffff021916908373ffffffffffffffffffffffffffffffffffffffff160217905550611cf4806100696000396000f3fe608060405234801561001057600080fd5b506004361061009e5760003560e01c8063643f393411610066578063643f39341461015757806389671bf0146101785780638d5c04ef146101945780639ba1295a146101b3578063ed4c9002146101d25761009e565b8063111f2aae146100a35780631214d2fd146100d35780631c618eb3146100ef578063298410e51461010b5780634efb42d914610127575b600080fd5b6100bd60048036038101906100b89190611359565b6101f1565b6040516100ca91906113c7565b60405180910390f35b6100ed60048036038101906100e89190611528565b6103d4565b005b61010960048036038101906101049190611528565b610579565b005b61012560048036038101906101209190611584565b61071e565b005b610141600480360381019061013c9190611359565b6108e5565b60405161014e91906113c7565b60405180910390f35b61015f610ac8565b60405161016f949392919061172d565b60405180910390f35b610192600480360381019061018d9190611528565b610cce565b005b61019c610e73565b6040516101aa9291906118cf565b60405180910390f35b6101bb610fdd565b6040516101c99291906118cf565b60405180910390f35b6101da611147565b6040516101e89291906118cf565b60405180910390f35b600080600560008573ffffffffffffffffffffffffffffffffffffffff1673ffffffffffffffffffffffffffffffffffffffff16815260200190815260200160002060009054906101000a900460ff1661024a57600080fd5b600860008473ffffffffffffffffffffffffffffffffffffffff1673ffffffffffffffffffffffffffffffffffffffff16815260200190815260200160002060009054906101000a900460ff166102a057600080fd5b600090505b6009805490508110156103c757600981815481106102c6576102c5611906565b5b90600052602060002001548514801561034857508373ffffffffffffffffffffffffffffffffffffffff16600b828154811061030557610304611906565b5b9060005260206000200160009054906101000a900473ffffffffffffffffffffffffffffffffffffffff1673ffffffffffffffffffffffffffffffffffffffff16145b156103b45782600c828154811061036257610361611906565b5b9060005260206000200160006101000a81548173ffffffffffffffffffffffffffffffffffffffff021916908373ffffffffffffffffffffffffffffffffffffffff16021790555060019150506103cd565b80806103bf90611964565b9150506102a5565b60009150505b9392505050565b3373ffffffffffffffffffffffffffffffffffffffff16600e60009054906101000a900473ffffffffffffffffffffffffffffffffffffffff1673ffffffffffffffffffffffffffffffffffffffff161461042e57600080fd5b600560008373ffffffffffffffffffffffffffffffffffffffff1673ffffffffffffffffffffffffffffffffffffffff16815260200190815260200160002060009054906101000a900460ff161561048557600080fd5b6003829080600181540180825580915050600190039060005260206000200160009091909190916101000a81548173ffffffffffffffffffffffffffffffffffffffff021916908373ffffffffffffffffffffffffffffffffffffffff16021790555060048190806001815401808255809150506001900390600052602060002001600090919091909150908161051c9190611bb8565b506001600560008473ffffffffffffffffffffffffffffffffffffffff1673ffffffffffffffffffffffffffffffffffffffff16815260200190815260200160002060006101000a81548160ff0219169083151502179055505050565b3373ffffffffffffffffffffffffffffffffffffffff16600e60009054906101000a900473ffffffffffffffffffffffffffffffffffffffff1673ffffffffffffffffffffffffffffffffffffffff16146105d357600080fd5b600860008373ffffffffffffffffffffffffffffffffffffffff1673ffffffffffffffffffffffffffffffffffffffff16815260200190815260200160002060009054906101000a900460ff161561062a57600080fd5b6006829080600181540180825580915050600190039060005260206000200160009091909190916101000a81548173ffffffffffffffffffffffffffffffffffffffff021916908373ffffffffffffffffffffffffffffffffffffffff1602179055506007819080600181540180825580915050600190039060005260206000200160009091909190915090816106c19190611bb8565b506001600860008473ffffffffffffffffffffffffffffffffffffffff1673ffffffffffffffffffffffffffffffffffffffff16815260200190815260200160002060006101000a81548160ff0219169083151502179055505050565b600260008273ffffffffffffffffffffffffffffffffffffffff1673ffffffffffffffffffffffffffffffffffffffff16815260200190815260200160002060009054906101000a900460ff1661077457600080fd5b6001600d60008282546107879190611c8a565b925050819055506009600d549080600181540180825580915050600190039060005260206000200160009091909190915055600a819080600181540180825580915050600190039060005260206000200160009091909190916101000a81548173ffffffffffffffffffffffffffffffffffffffff021916908373ffffffffffffffffffffffffffffffffffffffff160217905550600b819080600181540180825580915050600190039060005260206000200160009091909190916101000a81548173ffffffffffffffffffffffffffffffffffffffff021916908373ffffffffffffffffffffffffffffffffffffffff160217905550600c819080600181540180825580915050600190039060005260206000200160009091909190916101000a81548173ffffffffffffffffffffffffffffffffffffffff021916908373ffffffffffffffffffffffffffffffffffffffff16021790555050565b600080600260008573ffffffffffffffffffffffffffffffffffffffff1673ffffffffffffffffffffffffffffffffffffffff16815260200190815260200160002060009054906101000a900460ff1661093e57600080fd5b600560008473ffffffffffffffffffffffffffffffffffffffff1673ffffffffffffffffffffffffffffffffffffffff16815260200190815260200160002060009054906101000a900460ff1661099457600080fd5b600090505b600980549050811015610abb57600981815481106109ba576109b9611906565b5b906000526020600020015485148015610a3c57508373ffffffffffffffffffffffffffffffffffffffff16600a82815481106109f9576109f8611906565b5b9060005260206000200160009054906101000a900473ffffffffffffffffffffffffffffffffffffffff1673ffffffffffffffffffffffffffffffffffffffff16145b15610aa85782600b8281548110610a5657610a55611906565b5b9060005260206000200160006101000a81548173ffffffffffffffffffffffffffffffffffffffff021916908373ffffffffffffffffffffffffffffffffffffffff1602179055506001915050610ac1565b8080610ab390611964565b915050610999565b60009150505b9392505050565b6060806060806009600a600b600c83805480602002602001604051908101604052809291908181526020018280548015610b2157602002820191906000526020600020905b815481526020019060010190808311610b0d575b5050505050935082805480602002602001604051908101604052809291908181526020018280548015610ba957602002820191906000526020600020905b8160009054906101000a900473ffffffffffffffffffffffffffffffffffffffff1673ffffffffffffffffffffffffffffffffffffffff1681526020019060010190808311610b5f575b5050505050925081805480602002602001604051908101604052809291908181526020018280548015610c3157602002820191906000526020600020905b8160009054906101000a900473ffffffffffffffffffffffffffffffffffffffff1673ffffffffffffffffffffffffffffffffffffffff1681526020019060010190808311610be7575b5050505050915080805480602002602001604051908101604052809291908181526020018280548015610cb957602002820191906000526020600020905b8160009054906101000a900473ffffffffffffffffffffffffffffffffffffffff1673ffffffffffffffffffffffffffffffffffffffff1681526020019060010190808311610c6f575b50505050509050935093509350935090919293565b3373ffffffffffffffffffffffffffffffffffffffff16600e60009054906101000a900473ffffffffffffffffffffffffffffffffffffffff1673ffffffffffffffffffffffffffffffffffffffff1614610d2857600080fd5b600260008373ffffffffffffffffffffffffffffffffffffffff1673ffffffffffffffffffffffffffffffffffffffff16815260200190815260200160002060009054906101000a900460ff1615610d7f57600080fd5b6000829080600181540180825580915050600190039060005260206000200160009091909190916101000a81548173ffffffffffffffffffffffffffffffffffffffff021916908373ffffffffffffffffffffffffffffffffffffffff160217905550600181908060018154018082558091505060019003906000526020600020016000909190919091509081610e169190611bb8565b506001600260008473ffffffffffffffffffffffffffffffffffffffff1673ffffffffffffffffffffffffffffffffffffffff16815260200190815260200160002060006101000a81548160ff0219169083151502179055505050565b6060806006600781805480602002602001604051908101604052809291908181526020018280548015610efb57602002820191906000526020600020905b8160009054906101000a900473ffffffffffffffffffffffffffffffffffffffff1673ffffffffffffffffffffffffffffffffffffffff1681526020019060010190808311610eb1575b5050505050915080805480602002602001604051908101604052809291908181526020016000905b82821015610fcf578382906000526020600020018054610f42906119db565b80601f0160208091040260200160405190810160405280929190818152602001828054610f6e906119db565b8015610fbb5780601f10610f9057610100808354040283529160200191610fbb565b820191906000526020600020905b815481529060010190602001808311610f9e57829003601f168201915b505050505081526020019060010190610f23565b505050509050915091509091565b606080600060018180548060200260200160405190810160405280929190818152602001828054801561106557602002820191906000526020600020905b8160009054906101000a900473ffffffffffffffffffffffffffffffffffffffff1673ffffffffffffffffffffffffffffffffffffffff168152602001906001019080831161101b575b5050505050915080805480602002602001604051908101604052809291908181526020016000905b828210156111395783829060005260206000200180546110ac906119db565b80601f01602080910402602001604051908101604052809291908181526020018280546110d8906119db565b80156111255780601f106110fa57610100808354040283529160200191611125565b820191906000526020600020905b81548152906001019060200180831161110857829003601f168201915b50505050508152602001906001019061108d565b505050509050915091509091565b60608060036004818054806020026020016040519081016040528092919081815260200182805480156111cf57602002820191906000526020600020905b8160009054906101000a900473ffffffffffffffffffffffffffffffffffffffff1673ffffffffffffffffffffffffffffffffffffffff1681526020019060010190808311611185575b5050505050915080805480602002602001604051908101604052809291908181526020016000905b828210156112a3578382906000526020600020018054611216906119db565b80601f0160208091040260200160405190810160405280929190818152602001828054611242906119db565b801561128f5780601f106112645761010080835404028352916020019161128f565b820191906000526020600020905b81548152906001019060200180831161127257829003601f168201915b5050505050815260200190600101906111f7565b505050509050915091509091565b6000604051905090565b600080fd5b600080fd5b6000819050919050565b6112d8816112c5565b81146112e357600080fd5b50565b6000813590506112f5816112cf565b92915050565b600073ffffffffffffffffffffffffffffffffffffffff82169050919050565b6000611326826112fb565b9050919050565b6113368161131b565b811461134157600080fd5b50565b6000813590506113538161132d565b92915050565b600080600060608486031215611372576113716112bb565b5b6000611380868287016112e6565b935050602061139186828701611344565b92505060406113a286828701611344565b9150509250925092565b60008115159050919050565b6113c1816113ac565b82525050565b60006020820190506113dc60008301846113b8565b92915050565b600080fd5b600080fd5b6000601f19601f8301169050919050565b7f4e487b7100000000000000000000000000000000000000000000000000000000600052604160045260246000fd5b611435826113ec565b810181811067ffffffffffffffff82111715611454576114536113fd565b5b80604052505050565b60006114676112b1565b9050611473828261142c565b919050565b600067ffffffffffffffff821115611493576114926113fd565b5b61149c826113ec565b9050602081019050919050565b82818337600083830152505050565b60006114cb6114c684611478565b61145d565b9050828152602081018484840111156114e7576114e66113e7565b5b6114f28482856114a9565b509392505050565b600082601f83011261150f5761150e6113e2565b5b813561151f8482602086016114b8565b91505092915050565b6000806040838503121561153f5761153e6112bb565b5b600061154d85828601611344565b925050602083013567ffffffffffffffff81111561156e5761156d6112c0565b5b61157a858286016114fa565b9150509250929050565b60006020828403121561159a576115996112bb565b5b60006115a884828501611344565b91505092915050565b600081519050919050565b600082825260208201905092915050565b6000819050602082019050919050565b6115e6816112c5565b82525050565b60006115f883836115dd565b60208301905092915050565b6000602082019050919050565b600061161c826115b1565b61162681856115bc565b9350611631836115cd565b8060005b8381101561166257815161164988826115ec565b975061165483611604565b925050600181019050611635565b5085935050505092915050565b600081519050919050565b600082825260208201905092915050565b6000819050602082019050919050565b6116a48161131b565b82525050565b60006116b6838361169b565b60208301905092915050565b6000602082019050919050565b60006116da8261166f565b6116e4818561167a565b93506116ef8361168b565b8060005b8381101561172057815161170788826116aa565b9750611712836116c2565b9250506001810190506116f3565b5085935050505092915050565b600060808201905081810360008301526117478187611611565b9050818103602083015261175b81866116cf565b9050818103604083015261176f81856116cf565b9050818103606083015261178381846116cf565b905095945050505050565b600081519050919050565b600082825260208201905092915050565b6000819050602082019050919050565b600081519050919050565b600082825260208201905092915050565b60005b838110156117f45780820151818401526020810190506117d9565b60008484015250505050565b600061180b826117ba565b61181581856117c5565b93506118258185602086016117d6565b61182e816113ec565b840191505092915050565b60006118458383611800565b905092915050565b6000602082019050919050565b60006118658261178e565b61186f8185611799565b935083602082028501611881856117aa565b8060005b858110156118bd578484038952815161189e8582611839565b94506118a98361184d565b925060208a01995050600181019050611885565b50829750879550505050505092915050565b600060408201905081810360008301526118e981856116cf565b905081810360208301526118fd818461185a565b90509392505050565b7f4e487b7100000000000000000000000000000000000000000000000000000000600052603260045260246000fd5b7f4e487b7100000000000000000000000000000000000000000000000000000000600052601160045260246000fd5b600061196f826112c5565b91507fffffffffffffffffffffffffffffffffffffffffffffffffffffffffffffffff82036119a1576119a0611935565b5b600182019050919050565b7f4e487b7100000000000000000000000000000000000000000000000000000000600052602260045260246000fd5b600060028204905060018216806119f357607f821691505b602082108103611a0657611a056119ac565b5b50919050565b60008190508160005260206000209050919050565b60006020601f8301049050919050565b600082821b905092915050565b600060088302611a6e7fffffffffffffffffffffffffffffffffffffffffffffffffffffffffffffffff82611a31565b611a788683611a31565b95508019841693508086168417925050509392505050565b6000819050919050565b6000611ab5611ab0611aab846112c5565b611a90565b6112c5565b9050919050565b6000819050919050565b611acf83611a9a565b611ae3611adb82611abc565b848454611a3e565b825550505050565b600090565b611af8611aeb565b611b03818484611ac6565b505050565b5b81811015611b2757611b1c600082611af0565b600181019050611b09565b5050565b601f821115611b6c57611b3d81611a0c565b611b4684611a21565b81016020851015611b55578190505b611b69611b6185611a21565b830182611b08565b50505b505050565b600082821c905092915050565b6000611b8f60001984600802611b71565b1980831691505092915050565b6000611ba88383611b7e565b9150826002028217905092915050565b611bc1826117ba565b67ffffffffffffffff811115611bda57611bd96113fd565b5b611be482546119db565b611bef828285611b2b565b600060209050601f831160018114611c225760008415611c10578287015190505b611c1a8582611b9c565b865550611c82565b601f198416611c3086611a0c565b60005b82811015611c5857848901518255600182019150602085019450602081019050611c33565b86831015611c755784890151611c71601f891682611b7e565b8355505b6001600288020188555050505b505050505050565b6000611c95826112c5565b9150611ca0836112c5565b9250828201905080821115611cb857611cb7611935565b5b9291505056fea2646970667358221220dcb004e946617d9a9aa40b47f6ddb137544cc1fd8043ef30023e7951dac717f964736f6c63430008130033",
  "immutableReferences": {},
  "source": "// SPDX-License-Identifier: MIT\npragma solidity >=0.4.22 <0.9.0;\n\ncontract farmer {\n\n  address[] _farmers;\n  string[] _farmernames;\n  mapping(address=>bool) _f;\n\n  address[] _distributors;\n  string[] _distributornames;\n  mapping(address=>bool) _d;\n\n  address[] _shops;\n  string[] _shopnames;\n  mapping(address=>bool) _s;\n\n  uint[] _assetid;\n  address[] _assetf;\n  address[] _assetd;\n  address[] _assets;\n\n  uint _id;\n\n  address admin;\n\n  constructor() \n  {\n    _id=0;\n    admin=msg.sender;\n  }\n\n  modifier onlyAdmin() {\n    require(admin==msg.sender);\n    _;\n  }\n\n  function addFarmer(address f_wallet,string memory f_name) onlyAdmin public {\n    require(!_f[f_wallet]);\n    _farmers.push(f_wallet);\n    _farmernames.push(f_name);\n    _f[f_wallet]=true;\n  }\n\n  function viewFarmer() public view returns(address[] memory,string[] memory) {\n    return(_farmers,_farmernames);\n  }\n\n  function addDistributor(address d_wallet,string memory d_name) onlyAdmin public {\n    require(!_d[d_wallet]);\n    _distributors.push(d_wallet);\n    _distributornames.push(d_name);\n    _d[d_wallet]=true;\n  }\n\n  function viewDistributor() public view returns(address[] memory, string[] memory) {\n    return(_distributors,_distributornames);                                                                \n  }\n\n  function addShop(address s_wallet, string memory s_name) onlyAdmin public {\n    require(!_s[s_wallet]);\n    _shops.push(s_wallet);\n    _shopnames.push(s_name);\n    _s[s_wallet]=true;\n  }\n\n  function viewShop() public view returns(address[] memory,string[] memory) {\n    return(_shops,_shopnames);\n  }\n\n  function addAsset(address f_wallet) public {\n    require(_f[f_wallet]);\n    _id+=1;\n    _assetid.push(_id);\n    _assetf.push(f_wallet);\n    _assetd.push(f_wallet);\n    _assets.push(f_wallet);\n  }\n  function viewAsset() public view returns(uint[] memory,address[] memory,address[] memory,address[] memory) {\n    return(_assetid,_assetf,_assetd,_assets);\n  }\n\n  function sellAssetToDistributor(uint assetid,address f_wallet,address d_wallet) public returns(bool){\n    uint i;\n    require(_f[f_wallet]);\n    require(_d[d_wallet]);\n    for(i=0;i<_assetid.length;i++){\n      if(assetid==_assetid[i] && _assetf[i] ==f_wallet){\n        _assetd[i]=d_wallet;\n        return true;\n      }\n    }\n    return false;\n  }\n  function sellAssetToShop(uint assetid,address d_wallet, address s_wallet) public returns(bool) {\n    uint i;\n    require(_d[d_wallet]);\n    require(_s[s_wallet]);\n    for(i=0;i<_assetid.length;i++){\n      if(assetid==_assetid[i] && _assetd[i]==d_wallet){\n        _assets[i]=s_wallet;\n        return true;\n      }\n    }\n    return false;\n  }\n}\n",
  "sourcePath": "C:\\Users\\91984\\Desktop\\SupplyChainManagement\\contracts\\farmer.sol",
  "compiler": {
    "name": "solc",
    "version": "0.8.19+commit.7dd6d404.Emscripten.clang"
  },
  "schemaVersion": "3.4.16",
  "updatedAt": "2023-12-29T04:29:14.330Z",
  "networkType": "ethereum",
  "devdoc": {
    "kind": "dev",
    "methods": {},
    "version": 1
  },
  "userdoc": {
    "kind": "user",
    "methods": {},
    "version": 1
  }
}